{
  "_format": "hh-sol-artifact-1",
  "contractName": "GoodsMarketplace",
  "sourceName": "contracts/GoodsMarketplace.sol",
  "abi": [
    {
      "inputs": [],
      "stateMutability": "nonpayable",
      "type": "constructor"
    },
    {
      "anonymous": false,
      "inputs": [
        {
          "indexed": true,
          "internalType": "address",
          "name": "owner",
          "type": "address"
        },
        {
          "indexed": true,
          "internalType": "address",
          "name": "approved",
          "type": "address"
        },
        {
          "indexed": true,
          "internalType": "uint256",
          "name": "tokenId",
          "type": "uint256"
        }
      ],
      "name": "Approval",
      "type": "event"
    },
    {
      "anonymous": false,
      "inputs": [
        {
          "indexed": true,
          "internalType": "address",
          "name": "owner",
          "type": "address"
        },
        {
          "indexed": true,
          "internalType": "address",
          "name": "operator",
          "type": "address"
        },
        {
          "indexed": false,
          "internalType": "bool",
          "name": "approved",
          "type": "bool"
        }
      ],
      "name": "ApprovalForAll",
      "type": "event"
    },
    {
      "anonymous": false,
      "inputs": [
        {
          "indexed": true,
          "internalType": "uint256",
          "name": "tokenId",
          "type": "uint256"
        },
        {
          "indexed": false,
          "internalType": "address",
          "name": "seller",
          "type": "address"
        },
        {
          "indexed": false,
          "internalType": "address",
          "name": "owner",
          "type": "address"
        },
        {
          "indexed": false,
          "internalType": "uint256",
          "name": "price",
          "type": "uint256"
        },
        {
          "indexed": false,
          "internalType": "bool",
          "name": "sold",
          "type": "bool"
        }
      ],
      "name": "MarketItemCreated",
      "type": "event"
    },
    {
      "anonymous": false,
      "inputs": [
        {
          "indexed": true,
          "internalType": "address",
          "name": "from",
          "type": "address"
        },
        {
          "indexed": true,
          "internalType": "address",
          "name": "to",
          "type": "address"
        },
        {
          "indexed": true,
          "internalType": "uint256",
          "name": "tokenId",
          "type": "uint256"
        }
      ],
      "name": "Transfer",
      "type": "event"
    },
    {
      "inputs": [
        {
          "internalType": "address",
          "name": "to",
          "type": "address"
        },
        {
          "internalType": "uint256",
          "name": "tokenId",
          "type": "uint256"
        }
      ],
      "name": "approve",
      "outputs": [],
      "stateMutability": "nonpayable",
      "type": "function"
    },
    {
      "inputs": [
        {
          "internalType": "address",
          "name": "owner",
          "type": "address"
        }
      ],
      "name": "balanceOf",
      "outputs": [
        {
          "internalType": "uint256",
          "name": "",
          "type": "uint256"
        }
      ],
      "stateMutability": "view",
      "type": "function"
    },
    {
      "inputs": [
        {
          "internalType": "uint256",
          "name": "tokenId",
          "type": "uint256"
        }
      ],
      "name": "createMarketSale",
      "outputs": [],
      "stateMutability": "payable",
      "type": "function"
    },
    {
      "inputs": [
        {
          "internalType": "string",
          "name": "tokenURI",
          "type": "string"
        },
        {
          "internalType": "uint256",
          "name": "price",
          "type": "uint256"
        }
      ],
      "name": "createToken",
      "outputs": [
        {
          "internalType": "uint256",
          "name": "",
          "type": "uint256"
        }
      ],
      "stateMutability": "payable",
      "type": "function"
    },
    {
      "inputs": [],
      "name": "fetchItemsListed",
      "outputs": [
        {
          "components": [
            {
              "internalType": "uint256",
              "name": "tokenId",
              "type": "uint256"
            },
            {
              "internalType": "address payable",
              "name": "seller",
              "type": "address"
            },
            {
              "internalType": "address payable",
              "name": "owner",
              "type": "address"
            },
            {
              "internalType": "uint256",
              "name": "price",
              "type": "uint256"
            },
            {
              "internalType": "bool",
              "name": "sold",
              "type": "bool"
            }
          ],
          "internalType": "struct GoodsMarketplace.MarketItem[]",
          "name": "",
          "type": "tuple[]"
        }
      ],
      "stateMutability": "view",
      "type": "function"
    },
    {
      "inputs": [],
      "name": "fetchMarketItems",
      "outputs": [
        {
          "components": [
            {
              "internalType": "uint256",
              "name": "tokenId",
              "type": "uint256"
            },
            {
              "internalType": "address payable",
              "name": "seller",
              "type": "address"
            },
            {
              "internalType": "address payable",
              "name": "owner",
              "type": "address"
            },
            {
              "internalType": "uint256",
              "name": "price",
              "type": "uint256"
            },
            {
              "internalType": "bool",
              "name": "sold",
              "type": "bool"
            }
          ],
          "internalType": "struct GoodsMarketplace.MarketItem[]",
          "name": "",
          "type": "tuple[]"
        }
      ],
      "stateMutability": "view",
      "type": "function"
    },
    {
      "inputs": [],
      "name": "fetchMyGoods",
      "outputs": [
        {
          "components": [
            {
              "internalType": "uint256",
              "name": "tokenId",
              "type": "uint256"
            },
            {
              "internalType": "address payable",
              "name": "seller",
              "type": "address"
            },
            {
              "internalType": "address payable",
              "name": "owner",
              "type": "address"
            },
            {
              "internalType": "uint256",
              "name": "price",
              "type": "uint256"
            },
            {
              "internalType": "bool",
              "name": "sold",
              "type": "bool"
            }
          ],
          "internalType": "struct GoodsMarketplace.MarketItem[]",
          "name": "",
          "type": "tuple[]"
        }
      ],
      "stateMutability": "view",
      "type": "function"
    },
    {
      "inputs": [
        {
          "internalType": "uint256",
          "name": "tokenId",
          "type": "uint256"
        }
      ],
      "name": "getApproved",
      "outputs": [
        {
          "internalType": "address",
          "name": "",
          "type": "address"
        }
      ],
      "stateMutability": "view",
      "type": "function"
    },
    {
      "inputs": [],
      "name": "getListingPrice",
      "outputs": [
        {
          "internalType": "uint256",
          "name": "",
          "type": "uint256"
        }
      ],
      "stateMutability": "view",
      "type": "function"
    },
    {
      "inputs": [],
      "name": "getOwnerCommissionPercentage",
      "outputs": [
        {
          "internalType": "uint256",
          "name": "",
          "type": "uint256"
        }
      ],
      "stateMutability": "view",
      "type": "function"
    },
    {
      "inputs": [
        {
          "internalType": "address",
          "name": "owner",
          "type": "address"
        },
        {
          "internalType": "address",
          "name": "operator",
          "type": "address"
        }
      ],
      "name": "isApprovedForAll",
      "outputs": [
        {
          "internalType": "bool",
          "name": "",
          "type": "bool"
        }
      ],
      "stateMutability": "view",
      "type": "function"
    },
    {
      "inputs": [],
      "name": "name",
      "outputs": [
        {
          "internalType": "string",
          "name": "",
          "type": "string"
        }
      ],
      "stateMutability": "view",
      "type": "function"
    },
    {
      "inputs": [
        {
          "internalType": "uint256",
          "name": "tokenId",
          "type": "uint256"
        }
      ],
      "name": "ownerOf",
      "outputs": [
        {
          "internalType": "address",
          "name": "",
          "type": "address"
        }
      ],
      "stateMutability": "view",
      "type": "function"
    },
    {
      "inputs": [
        {
          "internalType": "uint256",
          "name": "tokenId",
          "type": "uint256"
        },
        {
          "internalType": "uint256",
          "name": "price",
          "type": "uint256"
        }
      ],
      "name": "resellToken",
      "outputs": [],
      "stateMutability": "payable",
      "type": "function"
    },
    {
      "inputs": [
        {
          "internalType": "address",
          "name": "from",
          "type": "address"
        },
        {
          "internalType": "address",
          "name": "to",
          "type": "address"
        },
        {
          "internalType": "uint256",
          "name": "tokenId",
          "type": "uint256"
        }
      ],
      "name": "safeTransferFrom",
      "outputs": [],
      "stateMutability": "nonpayable",
      "type": "function"
    },
    {
      "inputs": [
        {
          "internalType": "address",
          "name": "from",
          "type": "address"
        },
        {
          "internalType": "address",
          "name": "to",
          "type": "address"
        },
        {
          "internalType": "uint256",
          "name": "tokenId",
          "type": "uint256"
        },
        {
          "internalType": "bytes",
          "name": "data",
          "type": "bytes"
        }
      ],
      "name": "safeTransferFrom",
      "outputs": [],
      "stateMutability": "nonpayable",
      "type": "function"
    },
    {
      "inputs": [
        {
          "internalType": "address",
          "name": "operator",
          "type": "address"
        },
        {
          "internalType": "bool",
          "name": "approved",
          "type": "bool"
        }
      ],
      "name": "setApprovalForAll",
      "outputs": [],
      "stateMutability": "nonpayable",
      "type": "function"
    },
    {
      "inputs": [
        {
          "internalType": "bytes4",
          "name": "interfaceId",
          "type": "bytes4"
        }
      ],
      "name": "supportsInterface",
      "outputs": [
        {
          "internalType": "bool",
          "name": "",
          "type": "bool"
        }
      ],
      "stateMutability": "view",
      "type": "function"
    },
    {
      "inputs": [],
      "name": "symbol",
      "outputs": [
        {
          "internalType": "string",
          "name": "",
          "type": "string"
        }
      ],
      "stateMutability": "view",
      "type": "function"
    },
    {
      "inputs": [
        {
          "internalType": "uint256",
          "name": "tokenId",
          "type": "uint256"
        }
      ],
      "name": "tokenURI",
      "outputs": [
        {
          "internalType": "string",
          "name": "",
          "type": "string"
        }
      ],
      "stateMutability": "view",
      "type": "function"
    },
    {
      "inputs": [
        {
          "internalType": "address",
          "name": "from",
          "type": "address"
        },
        {
          "internalType": "address",
          "name": "to",
          "type": "address"
        },
        {
          "internalType": "uint256",
          "name": "tokenId",
          "type": "uint256"
        }
      ],
      "name": "transferFrom",
      "outputs": [],
      "stateMutability": "nonpayable",
      "type": "function"
    },
    {
      "inputs": [
        {
          "internalType": "uint256",
          "name": "_listingPrice",
          "type": "uint256"
        }
      ],
      "name": "updateListingPrice",
      "outputs": [],
      "stateMutability": "payable",
      "type": "function"
    },
    {
      "inputs": [
        {
          "internalType": "uint256",
          "name": "_ownerCommissionPercentage",
          "type": "uint256"
        }
      ],
      "name": "updateOwnerCommissionPercentage",
      "outputs": [],
      "stateMutability": "payable",
      "type": "function"
    }
  ],
  "bytecode": "0x60806040526658d15e17628000600955600f600a55600a546103e862000026919062000207565b600b553480156200003657600080fd5b506040518060400160405280601081526020017f4d657461766572736520546f6b656e73000000000000000000000000000000008152506040518060400160405280600481526020017f4d455454000000000000000000000000000000000000000000000000000000008152508160009080519060200190620000bb9291906200011e565b508060019080519060200190620000d49291906200011e565b50505033600c60006101000a81548173ffffffffffffffffffffffffffffffffffffffff021916908373ffffffffffffffffffffffffffffffffffffffff160217905550620002a7565b8280546200012c9062000271565b90600052602060002090601f0160209004810192826200015057600085556200019c565b82601f106200016b57805160ff19168380011785556200019c565b828001600101855582156200019c579182015b828111156200019b5782518255916020019190600101906200017e565b5b509050620001ab9190620001af565b5090565b5b80821115620001ca576000816000905550600101620001b0565b5090565b6000819050919050565b7f4e487b7100000000000000000000000000000000000000000000000000000000600052601160045260246000fd5b60006200021482620001ce565b91506200022183620001ce565b925082821015620002375762000236620001d8565b5b828203905092915050565b7f4e487b7100000000000000000000000000000000000000000000000000000000600052602260045260246000fd5b600060028204905060018216806200028a57607f821691505b60208210811415620002a157620002a062000242565b5b50919050565b61412380620002b76000396000f3fe6080604052600436106101405760003560e01c80636352211e116100b6578063b88d4fde1161006f578063b88d4fde14610447578063be9af53614610470578063c87b56dd1461048c578063e219fc75146104c9578063e985e9c5146104e5578063f060a4471461052257610140565b80636352211e1461032d57806370a082311461036a57806372b3b620146103a757806395d89b41146103d7578063a22cb46514610402578063ae677aa31461042b57610140565b806312e855851161010857806312e855851461023e57806323b872dd146102695780633ff7abca1461029257806342842e0e146102ae57806345f8fa80146102d757806356bee5641461030257610140565b806301ffc9a71461014557806306fdde0314610182578063081812fc146101ad578063095ea7b3146101ea5780630f08efe014610213575b600080fd5b34801561015157600080fd5b5061016c60048036038101906101679190612b44565b61054d565b6040516101799190612b8c565b60405180910390f35b34801561018e57600080fd5b5061019761062f565b6040516101a49190612c40565b60405180910390f35b3480156101b957600080fd5b506101d460048036038101906101cf9190612c98565b6106c1565b6040516101e19190612d06565b60405180910390f35b3480156101f657600080fd5b50610211600480360381019061020c9190612d4d565b610707565b005b34801561021f57600080fd5b5061022861081f565b6040516102359190612ee3565b60405180910390f35b34801561024a57600080fd5b50610253610a88565b6040516102609190612f14565b60405180910390f35b34801561027557600080fd5b50610290600480360381019061028b9190612f2f565b610a92565b005b6102ac60048036038101906102a79190612c98565b610af2565b005b3480156102ba57600080fd5b506102d560048036038101906102d09190612f2f565b610b8c565b005b3480156102e357600080fd5b506102ec610bac565b6040516102f99190612ee3565b60405180910390f35b34801561030e57600080fd5b50610317610e9a565b6040516103249190612ee3565b60405180910390f35b34801561033957600080fd5b50610354600480360381019061034f9190612c98565b611188565b6040516103619190612d06565b60405180910390f35b34801561037657600080fd5b50610391600480360381019061038c9190612f82565b61123a565b60405161039e9190612f14565b60405180910390f35b6103c160048036038101906103bc91906130e4565b6112f2565b6040516103ce9190612f14565b60405180910390f35b3480156103e357600080fd5b506103ec611334565b6040516103f99190612c40565b60405180910390f35b34801561040e57600080fd5b506104296004803603810190610424919061316c565b6113c6565b005b61044560048036038101906104409190612c98565b6113dc565b005b34801561045357600080fd5b5061046e6004803603810190610469919061324d565b611476565b005b61048a60048036038101906104859190612c98565b6114d8565b005b34801561049857600080fd5b506104b360048036038101906104ae9190612c98565b611716565b6040516104c09190612c40565b60405180910390f35b6104e360048036038101906104de91906132d0565b611829565b005b3480156104f157600080fd5b5061050c60048036038101906105079190613310565b611a1e565b6040516105199190612b8c565b60405180910390f35b34801561052e57600080fd5b50610537611ab2565b6040516105449190612f14565b60405180910390f35b60007f80ac58cd000000000000000000000000000000000000000000000000000000007bffffffffffffffffffffffffffffffffffffffffffffffffffffffff1916827bffffffffffffffffffffffffffffffffffffffffffffffffffffffff1916148061061857507f5b5e139f000000000000000000000000000000000000000000000000000000007bffffffffffffffffffffffffffffffffffffffffffffffffffffffff1916827bffffffffffffffffffffffffffffffffffffffffffffffffffffffff1916145b80610628575061062782611abc565b5b9050919050565b60606000805461063e9061337f565b80601f016020809104026020016040519081016040528092919081815260200182805461066a9061337f565b80156106b75780601f1061068c576101008083540402835291602001916106b7565b820191906000526020600020905b81548152906001019060200180831161069a57829003601f168201915b5050505050905090565b60006106cc82611b26565b6004600083815260200190815260200160002060009054906101000a900473ffffffffffffffffffffffffffffffffffffffff169050919050565b600061071282611188565b90508073ffffffffffffffffffffffffffffffffffffffff168373ffffffffffffffffffffffffffffffffffffffff161415610783576040517f08c379a000000000000000000000000000000000000000000000000000000000815260040161077a90613423565b60405180910390fd5b8073ffffffffffffffffffffffffffffffffffffffff166107a2611b71565b73ffffffffffffffffffffffffffffffffffffffff1614806107d157506107d0816107cb611b71565b611a1e565b5b610810576040517f08c379a0000000000000000000000000000000000000000000000000000000008152600401610807906134b5565b60405180910390fd5b61081a8383611b79565b505050565b6060600061082d6007611c32565b9050600061083b6008611c32565b6108456007611c32565b61084f9190613504565b90506000808267ffffffffffffffff81111561086e5761086d612fb9565b5b6040519080825280602002602001820160405280156108a757816020015b6108946129d8565b81526020019060019003908161088c5790505b50905060005b84811015610a7d573073ffffffffffffffffffffffffffffffffffffffff16600d60006001846108dd9190613538565b815260200190815260200160002060020160009054906101000a900473ffffffffffffffffffffffffffffffffffffffff1673ffffffffffffffffffffffffffffffffffffffff161415610a6a57600060018261093a9190613538565b90506000600d60008381526020019081526020016000209050806040518060a0016040529081600082015481526020016001820160009054906101000a900473ffffffffffffffffffffffffffffffffffffffff1673ffffffffffffffffffffffffffffffffffffffff1673ffffffffffffffffffffffffffffffffffffffff1681526020016002820160009054906101000a900473ffffffffffffffffffffffffffffffffffffffff1673ffffffffffffffffffffffffffffffffffffffff1673ffffffffffffffffffffffffffffffffffffffff168152602001600382015481526020016004820160009054906101000a900460ff161515151581525050848681518110610a4d57610a4c61358e565b5b6020026020010181905250600185610a659190613538565b945050505b8080610a75906135bd565b9150506108ad565b508094505050505090565b6000600954905090565b610aa3610a9d611b71565b82611c40565b610ae2576040517f08c379a0000000000000000000000000000000000000000000000000000000008152600401610ad990613678565b60405180910390fd5b610aed838383611cd5565b505050565b3373ffffffffffffffffffffffffffffffffffffffff16600c60009054906101000a900473ffffffffffffffffffffffffffffffffffffffff1673ffffffffffffffffffffffffffffffffffffffff1614610b82576040517f08c379a0000000000000000000000000000000000000000000000000000000008152600401610b799061370a565b60405180910390fd5b80600a8190555050565b610ba783838360405180602001604052806000815250611476565b505050565b60606000610bba6007611c32565b905060008060005b83811015610c63573373ffffffffffffffffffffffffffffffffffffffff16600d6000600184610bf29190613538565b815260200190815260200160002060010160009054906101000a900473ffffffffffffffffffffffffffffffffffffffff1673ffffffffffffffffffffffffffffffffffffffff161415610c5057600183610c4d9190613538565b92505b8080610c5b906135bd565b915050610bc2565b5060008267ffffffffffffffff811115610c8057610c7f612fb9565b5b604051908082528060200260200182016040528015610cb957816020015b610ca66129d8565b815260200190600190039081610c9e5790505b50905060005b84811015610e8f573373ffffffffffffffffffffffffffffffffffffffff16600d6000600184610cef9190613538565b815260200190815260200160002060010160009054906101000a900473ffffffffffffffffffffffffffffffffffffffff1673ffffffffffffffffffffffffffffffffffffffff161415610e7c576000600182610d4c9190613538565b90506000600d60008381526020019081526020016000209050806040518060a0016040529081600082015481526020016001820160009054906101000a900473ffffffffffffffffffffffffffffffffffffffff1673ffffffffffffffffffffffffffffffffffffffff1673ffffffffffffffffffffffffffffffffffffffff1681526020016002820160009054906101000a900473ffffffffffffffffffffffffffffffffffffffff1673ffffffffffffffffffffffffffffffffffffffff1673ffffffffffffffffffffffffffffffffffffffff168152602001600382015481526020016004820160009054906101000a900460ff161515151581525050848681518110610e5f57610e5e61358e565b5b6020026020010181905250600185610e779190613538565b945050505b8080610e87906135bd565b915050610cbf565b508094505050505090565b60606000610ea86007611c32565b905060008060005b83811015610f51573373ffffffffffffffffffffffffffffffffffffffff16600d6000600184610ee09190613538565b815260200190815260200160002060020160009054906101000a900473ffffffffffffffffffffffffffffffffffffffff1673ffffffffffffffffffffffffffffffffffffffff161415610f3e57600183610f3b9190613538565b92505b8080610f49906135bd565b915050610eb0565b5060008267ffffffffffffffff811115610f6e57610f6d612fb9565b5b604051908082528060200260200182016040528015610fa757816020015b610f946129d8565b815260200190600190039081610f8c5790505b50905060005b8481101561117d573373ffffffffffffffffffffffffffffffffffffffff16600d6000600184610fdd9190613538565b815260200190815260200160002060020160009054906101000a900473ffffffffffffffffffffffffffffffffffffffff1673ffffffffffffffffffffffffffffffffffffffff16141561116a57600060018261103a9190613538565b90506000600d60008381526020019081526020016000209050806040518060a0016040529081600082015481526020016001820160009054906101000a900473ffffffffffffffffffffffffffffffffffffffff1673ffffffffffffffffffffffffffffffffffffffff1673ffffffffffffffffffffffffffffffffffffffff1681526020016002820160009054906101000a900473ffffffffffffffffffffffffffffffffffffffff1673ffffffffffffffffffffffffffffffffffffffff1673ffffffffffffffffffffffffffffffffffffffff168152602001600382015481526020016004820160009054906101000a900460ff16151515158152505084868151811061114d5761114c61358e565b5b60200260200101819052506001856111659190613538565b945050505b8080611175906135bd565b915050610fad565b508094505050505090565b6000806002600084815260200190815260200160002060009054906101000a900473ffffffffffffffffffffffffffffffffffffffff169050600073ffffffffffffffffffffffffffffffffffffffff168173ffffffffffffffffffffffffffffffffffffffff161415611231576040517f08c379a000000000000000000000000000000000000000000000000000000000815260040161122890613776565b60405180910390fd5b80915050919050565b60008073ffffffffffffffffffffffffffffffffffffffff168273ffffffffffffffffffffffffffffffffffffffff1614156112ab576040517f08c379a00000000000000000000000000000000000000000000000000000000081526004016112a290613808565b60405180910390fd5b600360008373ffffffffffffffffffffffffffffffffffffffff1673ffffffffffffffffffffffffffffffffffffffff168152602001908152602001600020549050919050565b60006112fe6007611f3c565b600061130a6007611c32565b90506113163382611f52565b611320818561212c565b61132a81846121a0565b8091505092915050565b6060600180546113439061337f565b80601f016020809104026020016040519081016040528092919081815260200182805461136f9061337f565b80156113bc5780601f10611391576101008083540402835291602001916113bc565b820191906000526020600020905b81548152906001019060200180831161139f57829003601f168201915b5050505050905090565b6113d86113d1611b71565b83836123a3565b5050565b3373ffffffffffffffffffffffffffffffffffffffff16600c60009054906101000a900473ffffffffffffffffffffffffffffffffffffffff1673ffffffffffffffffffffffffffffffffffffffff161461146c576040517f08c379a00000000000000000000000000000000000000000000000000000000081526004016114639061389a565b60405180910390fd5b8060098190555050565b611487611481611b71565b83611c40565b6114c6576040517f08c379a00000000000000000000000000000000000000000000000000000000081526004016114bd90613678565b60405180910390fd5b6114d284848484612510565b50505050565b6000600d60008381526020019081526020016000206003015490506000600d600084815260200190815260200160002060010160009054906101000a900473ffffffffffffffffffffffffffffffffffffffff169050813414611570576040517f08c379a00000000000000000000000000000000000000000000000000000000081526004016115679061392c565b60405180910390fd5b33600d600085815260200190815260200160002060020160006101000a81548173ffffffffffffffffffffffffffffffffffffffff021916908373ffffffffffffffffffffffffffffffffffffffff1602179055506001600d600085815260200190815260200160002060040160006101000a81548160ff0219169083151502179055506000600d600085815260200190815260200160002060010160006101000a81548173ffffffffffffffffffffffffffffffffffffffff021916908373ffffffffffffffffffffffffffffffffffffffff1602179055506116546008611f3c565b61165f303385611cd5565b600c60009054906101000a900473ffffffffffffffffffffffffffffffffffffffff1673ffffffffffffffffffffffffffffffffffffffff166108fc6009549081150290604051600060405180830381858888f193505050501580156116c9573d6000803e3d6000fd5b508073ffffffffffffffffffffffffffffffffffffffff166108fc349081150290604051600060405180830381858888f19350505050158015611710573d6000803e3d6000fd5b50505050565b606061172182611b26565b60006006600084815260200190815260200160002080546117419061337f565b80601f016020809104026020016040519081016040528092919081815260200182805461176d9061337f565b80156117ba5780601f1061178f576101008083540402835291602001916117ba565b820191906000526020600020905b81548152906001019060200180831161179d57829003601f168201915b5050505050905060006117cb61256c565b90506000815114156117e1578192505050611824565b6000825111156118165780826040516020016117fe929190613988565b60405160208183030381529060405292505050611824565b61181f84612583565b925050505b919050565b3373ffffffffffffffffffffffffffffffffffffffff16600d600084815260200190815260200160002060020160009054906101000a900473ffffffffffffffffffffffffffffffffffffffff1673ffffffffffffffffffffffffffffffffffffffff16146118cd576040517f08c379a00000000000000000000000000000000000000000000000000000000081526004016118c490613a1e565b60405180910390fd5b6009543414611911576040517f08c379a000000000000000000000000000000000000000000000000000000000815260040161190890613ab0565b60405180910390fd5b6000600d600084815260200190815260200160002060040160006101000a81548160ff02191690831515021790555080600d60008481526020019081526020016000206003018190555033600d600084815260200190815260200160002060010160006101000a81548173ffffffffffffffffffffffffffffffffffffffff021916908373ffffffffffffffffffffffffffffffffffffffff16021790555030600d600084815260200190815260200160002060020160006101000a81548173ffffffffffffffffffffffffffffffffffffffff021916908373ffffffffffffffffffffffffffffffffffffffff160217905550611a0f60086125eb565b611a1a333084611cd5565b5050565b6000600560008473ffffffffffffffffffffffffffffffffffffffff1673ffffffffffffffffffffffffffffffffffffffff16815260200190815260200160002060008373ffffffffffffffffffffffffffffffffffffffff1673ffffffffffffffffffffffffffffffffffffffff16815260200190815260200160002060009054906101000a900460ff16905092915050565b6000600a54905090565b60007f01ffc9a7000000000000000000000000000000000000000000000000000000007bffffffffffffffffffffffffffffffffffffffffffffffffffffffff1916827bffffffffffffffffffffffffffffffffffffffffffffffffffffffff1916149050919050565b611b2f81612647565b611b6e576040517f08c379a0000000000000000000000000000000000000000000000000000000008152600401611b6590613776565b60405180910390fd5b50565b600033905090565b816004600083815260200190815260200160002060006101000a81548173ffffffffffffffffffffffffffffffffffffffff021916908373ffffffffffffffffffffffffffffffffffffffff160217905550808273ffffffffffffffffffffffffffffffffffffffff16611bec83611188565b73ffffffffffffffffffffffffffffffffffffffff167f8c5be1e5ebec7d5bd14f71427d1e84f3dd0314c0f7b2291e5b200ac8c7c3b92560405160405180910390a45050565b600081600001549050919050565b600080611c4c83611188565b90508073ffffffffffffffffffffffffffffffffffffffff168473ffffffffffffffffffffffffffffffffffffffff161480611c8e5750611c8d8185611a1e565b5b80611ccc57508373ffffffffffffffffffffffffffffffffffffffff16611cb4846106c1565b73ffffffffffffffffffffffffffffffffffffffff16145b91505092915050565b8273ffffffffffffffffffffffffffffffffffffffff16611cf582611188565b73ffffffffffffffffffffffffffffffffffffffff1614611d4b576040517f08c379a0000000000000000000000000000000000000000000000000000000008152600401611d4290613b42565b60405180910390fd5b600073ffffffffffffffffffffffffffffffffffffffff168273ffffffffffffffffffffffffffffffffffffffff161415611dbb576040517f08c379a0000000000000000000000000000000000000000000000000000000008152600401611db290613bd4565b60405180910390fd5b611dc68383836126b3565b611dd1600082611b79565b6001600360008573ffffffffffffffffffffffffffffffffffffffff1673ffffffffffffffffffffffffffffffffffffffff1681526020019081526020016000206000828254611e219190613504565b925050819055506001600360008473ffffffffffffffffffffffffffffffffffffffff1673ffffffffffffffffffffffffffffffffffffffff1681526020019081526020016000206000828254611e789190613538565b92505081905550816002600083815260200190815260200160002060006101000a81548173ffffffffffffffffffffffffffffffffffffffff021916908373ffffffffffffffffffffffffffffffffffffffff160217905550808273ffffffffffffffffffffffffffffffffffffffff168473ffffffffffffffffffffffffffffffffffffffff167fddf252ad1be2c89b69c2b068fc378daa952ba7f163c4a11628f55a4df523b3ef60405160405180910390a4611f378383836126b8565b505050565b6001816000016000828254019250508190555050565b600073ffffffffffffffffffffffffffffffffffffffff168273ffffffffffffffffffffffffffffffffffffffff161415611fc2576040517f08c379a0000000000000000000000000000000000000000000000000000000008152600401611fb990613c40565b60405180910390fd5b611fcb81612647565b1561200b576040517f08c379a000000000000000000000000000000000000000000000000000000000815260040161200290613cac565b60405180910390fd5b612017600083836126b3565b6001600360008473ffffffffffffffffffffffffffffffffffffffff1673ffffffffffffffffffffffffffffffffffffffff16815260200190815260200160002060008282546120679190613538565b92505081905550816002600083815260200190815260200160002060006101000a81548173ffffffffffffffffffffffffffffffffffffffff021916908373ffffffffffffffffffffffffffffffffffffffff160217905550808273ffffffffffffffffffffffffffffffffffffffff16600073ffffffffffffffffffffffffffffffffffffffff167fddf252ad1be2c89b69c2b068fc378daa952ba7f163c4a11628f55a4df523b3ef60405160405180910390a4612128600083836126b8565b5050565b61213582612647565b612174576040517f08c379a000000000000000000000000000000000000000000000000000000000815260040161216b90613d3e565b60405180910390fd5b8060066000848152602001908152602001600020908051906020019061219b929190612a35565b505050565b600081116121e3576040517f08c379a00000000000000000000000000000000000000000000000000000000081526004016121da90613daa565b60405180910390fd5b6009543414612227576040517f08c379a000000000000000000000000000000000000000000000000000000000815260040161221e90613ab0565b60405180910390fd5b6040518060a001604052808381526020013373ffffffffffffffffffffffffffffffffffffffff1681526020013073ffffffffffffffffffffffffffffffffffffffff16815260200182815260200160001515815250600d60008481526020019081526020016000206000820151816000015560208201518160010160006101000a81548173ffffffffffffffffffffffffffffffffffffffff021916908373ffffffffffffffffffffffffffffffffffffffff16021790555060408201518160020160006101000a81548173ffffffffffffffffffffffffffffffffffffffff021916908373ffffffffffffffffffffffffffffffffffffffff1602179055506060820151816003015560808201518160040160006101000a81548160ff021916908315150217905550905050612360333084611cd5565b817fb640004f1d14576d0c209e240cad0410e0d8c0c33a09375861fbadae2588a98d33308460006040516123979493929190613dca565b60405180910390a25050565b8173ffffffffffffffffffffffffffffffffffffffff168373ffffffffffffffffffffffffffffffffffffffff161415612412576040517f08c379a000000000000000000000000000000000000000000000000000000000815260040161240990613e5b565b60405180910390fd5b80600560008573ffffffffffffffffffffffffffffffffffffffff1673ffffffffffffffffffffffffffffffffffffffff16815260200190815260200160002060008473ffffffffffffffffffffffffffffffffffffffff1673ffffffffffffffffffffffffffffffffffffffff16815260200190815260200160002060006101000a81548160ff0219169083151502179055508173ffffffffffffffffffffffffffffffffffffffff168373ffffffffffffffffffffffffffffffffffffffff167f17307eab39ab6107e8899845ad3d59bd9653f200f220920489ca2b5937696c31836040516125039190612b8c565b60405180910390a3505050565b61251b848484611cd5565b612527848484846126bd565b612566576040517f08c379a000000000000000000000000000000000000000000000000000000000815260040161255d90613eed565b60405180910390fd5b50505050565b606060405180602001604052806000815250905090565b606061258e82611b26565b600061259861256c565b905060008151116125b857604051806020016040528060008152506125e3565b806125c284612854565b6040516020016125d3929190613988565b6040516020818303038152906040525b915050919050565b60008160000154905060008111612637576040517f08c379a000000000000000000000000000000000000000000000000000000000815260040161262e90613f59565b60405180910390fd5b6001810382600001819055505050565b60008073ffffffffffffffffffffffffffffffffffffffff166002600084815260200190815260200160002060009054906101000a900473ffffffffffffffffffffffffffffffffffffffff1673ffffffffffffffffffffffffffffffffffffffff1614159050919050565b505050565b505050565b60006126de8473ffffffffffffffffffffffffffffffffffffffff166129b5565b15612847578373ffffffffffffffffffffffffffffffffffffffff1663150b7a02612707611b71565b8786866040518563ffffffff1660e01b81526004016127299493929190613fce565b602060405180830381600087803b15801561274357600080fd5b505af192505050801561277457506040513d601f19601f82011682018060405250810190612771919061402f565b60015b6127f7573d80600081146127a4576040519150601f19603f3d011682016040523d82523d6000602084013e6127a9565b606091505b506000815114156127ef576040517f08c379a00000000000000000000000000000000000000000000000000000000081526004016127e690613eed565b60405180910390fd5b805181602001fd5b63150b7a0260e01b7bffffffffffffffffffffffffffffffffffffffffffffffffffffffff1916817bffffffffffffffffffffffffffffffffffffffffffffffffffffffff19161491505061284c565b600190505b949350505050565b6060600082141561289c576040518060400160405280600181526020017f300000000000000000000000000000000000000000000000000000000000000081525090506129b0565b600082905060005b600082146128ce5780806128b7906135bd565b915050600a826128c7919061408b565b91506128a4565b60008167ffffffffffffffff8111156128ea576128e9612fb9565b5b6040519080825280601f01601f19166020018201604052801561291c5781602001600182028036833780820191505090505b5090505b600085146129a9576001826129359190613504565b9150600a8561294491906140bc565b60306129509190613538565b60f81b8183815181106129665761296561358e565b5b60200101907effffffffffffffffffffffffffffffffffffffffffffffffffffffffffffff1916908160001a905350600a856129a2919061408b565b9450612920565b8093505050505b919050565b6000808273ffffffffffffffffffffffffffffffffffffffff163b119050919050565b6040518060a0016040528060008152602001600073ffffffffffffffffffffffffffffffffffffffff168152602001600073ffffffffffffffffffffffffffffffffffffffff168152602001600081526020016000151581525090565b828054612a419061337f565b90600052602060002090601f016020900481019282612a635760008555612aaa565b82601f10612a7c57805160ff1916838001178555612aaa565b82800160010185558215612aaa579182015b82811115612aa9578251825591602001919060010190612a8e565b5b509050612ab79190612abb565b5090565b5b80821115612ad4576000816000905550600101612abc565b5090565b6000604051905090565b600080fd5b600080fd5b60007fffffffff0000000000000000000000000000000000000000000000000000000082169050919050565b612b2181612aec565b8114612b2c57600080fd5b50565b600081359050612b3e81612b18565b92915050565b600060208284031215612b5a57612b59612ae2565b5b6000612b6884828501612b2f565b91505092915050565b60008115159050919050565b612b8681612b71565b82525050565b6000602082019050612ba16000830184612b7d565b92915050565b600081519050919050565b600082825260208201905092915050565b60005b83811015612be1578082015181840152602081019050612bc6565b83811115612bf0576000848401525b50505050565b6000601f19601f8301169050919050565b6000612c1282612ba7565b612c1c8185612bb2565b9350612c2c818560208601612bc3565b612c3581612bf6565b840191505092915050565b60006020820190508181036000830152612c5a8184612c07565b905092915050565b6000819050919050565b612c7581612c62565b8114612c8057600080fd5b50565b600081359050612c9281612c6c565b92915050565b600060208284031215612cae57612cad612ae2565b5b6000612cbc84828501612c83565b91505092915050565b600073ffffffffffffffffffffffffffffffffffffffff82169050919050565b6000612cf082612cc5565b9050919050565b612d0081612ce5565b82525050565b6000602082019050612d1b6000830184612cf7565b92915050565b612d2a81612ce5565b8114612d3557600080fd5b50565b600081359050612d4781612d21565b92915050565b60008060408385031215612d6457612d63612ae2565b5b6000612d7285828601612d38565b9250506020612d8385828601612c83565b9150509250929050565b600081519050919050565b600082825260208201905092915050565b6000819050602082019050919050565b612dc281612c62565b82525050565b6000612dd382612cc5565b9050919050565b612de381612dc8565b82525050565b612df281612b71565b82525050565b60a082016000820151612e0e6000850182612db9565b506020820151612e216020850182612dda565b506040820151612e346040850182612dda565b506060820151612e476060850182612db9565b506080820151612e5a6080850182612de9565b50505050565b6000612e6c8383612df8565b60a08301905092915050565b6000602082019050919050565b6000612e9082612d8d565b612e9a8185612d98565b9350612ea583612da9565b8060005b83811015612ed6578151612ebd8882612e60565b9750612ec883612e78565b925050600181019050612ea9565b5085935050505092915050565b60006020820190508181036000830152612efd8184612e85565b905092915050565b612f0e81612c62565b82525050565b6000602082019050612f296000830184612f05565b92915050565b600080600060608486031215612f4857612f47612ae2565b5b6000612f5686828701612d38565b9350506020612f6786828701612d38565b9250506040612f7886828701612c83565b9150509250925092565b600060208284031215612f9857612f97612ae2565b5b6000612fa684828501612d38565b91505092915050565b600080fd5b600080fd5b7f4e487b7100000000000000000000000000000000000000000000000000000000600052604160045260246000fd5b612ff182612bf6565b810181811067ffffffffffffffff821117156130105761300f612fb9565b5b80604052505050565b6000613023612ad8565b905061302f8282612fe8565b919050565b600067ffffffffffffffff82111561304f5761304e612fb9565b5b61305882612bf6565b9050602081019050919050565b82818337600083830152505050565b600061308761308284613034565b613019565b9050828152602081018484840111156130a3576130a2612fb4565b5b6130ae848285613065565b509392505050565b600082601f8301126130cb576130ca612faf565b5b81356130db848260208601613074565b91505092915050565b600080604083850312156130fb576130fa612ae2565b5b600083013567ffffffffffffffff81111561311957613118612ae7565b5b613125858286016130b6565b925050602061313685828601612c83565b9150509250929050565b61314981612b71565b811461315457600080fd5b50565b60008135905061316681613140565b92915050565b6000806040838503121561318357613182612ae2565b5b600061319185828601612d38565b92505060206131a285828601613157565b9150509250929050565b600067ffffffffffffffff8211156131c7576131c6612fb9565b5b6131d082612bf6565b9050602081019050919050565b60006131f06131eb846131ac565b613019565b90508281526020810184848401111561320c5761320b612fb4565b5b613217848285613065565b509392505050565b600082601f83011261323457613233612faf565b5b81356132448482602086016131dd565b91505092915050565b6000806000806080858703121561326757613266612ae2565b5b600061327587828801612d38565b945050602061328687828801612d38565b935050604061329787828801612c83565b925050606085013567ffffffffffffffff8111156132b8576132b7612ae7565b5b6132c48782880161321f565b91505092959194509250565b600080604083850312156132e7576132e6612ae2565b5b60006132f585828601612c83565b925050602061330685828601612c83565b9150509250929050565b6000806040838503121561332757613326612ae2565b5b600061333585828601612d38565b925050602061334685828601612d38565b9150509250929050565b7f4e487b7100000000000000000000000000000000000000000000000000000000600052602260045260246000fd5b6000600282049050600182168061339757607f821691505b602082108114156133ab576133aa613350565b5b50919050565b7f4552433732313a20617070726f76616c20746f2063757272656e74206f776e6560008201527f7200000000000000000000000000000000000000000000000000000000000000602082015250565b600061340d602183612bb2565b9150613418826133b1565b604082019050919050565b6000602082019050818103600083015261343c81613400565b9050919050565b7f4552433732313a20617070726f76652063616c6c6572206973206e6f7420746f60008201527f6b656e206f776e6572206e6f7220617070726f76656420666f7220616c6c0000602082015250565b600061349f603e83612bb2565b91506134aa82613443565b604082019050919050565b600060208201905081810360008301526134ce81613492565b9050919050565b7f4e487b7100000000000000000000000000000000000000000000000000000000600052601160045260246000fd5b600061350f82612c62565b915061351a83612c62565b92508282101561352d5761352c6134d5565b5b828203905092915050565b600061354382612c62565b915061354e83612c62565b9250827fffffffffffffffffffffffffffffffffffffffffffffffffffffffffffffffff03821115613583576135826134d5565b5b828201905092915050565b7f4e487b7100000000000000000000000000000000000000000000000000000000600052603260045260246000fd5b60006135c882612c62565b91507fffffffffffffffffffffffffffffffffffffffffffffffffffffffffffffffff8214156135fb576135fa6134d5565b5b600182019050919050565b7f4552433732313a2063616c6c6572206973206e6f7420746f6b656e206f776e6560008201527f72206e6f7220617070726f766564000000000000000000000000000000000000602082015250565b6000613662602e83612bb2565b915061366d82613606565b604082019050919050565b6000602082019050818103600083015261369181613655565b9050919050565b7f4f6e6c79206d61726b6574706c616365206f776e65722063616e20757064617460008201527f6520746865206c697374696e6720707269636500000000000000000000000000602082015250565b60006136f4603383612bb2565b91506136ff82613698565b604082019050919050565b60006020820190508181036000830152613723816136e7565b9050919050565b7f4552433732313a20696e76616c696420746f6b656e2049440000000000000000600082015250565b6000613760601883612bb2565b915061376b8261372a565b602082019050919050565b6000602082019050818103600083015261378f81613753565b9050919050565b7f4552433732313a2061646472657373207a65726f206973206e6f74206120766160008201527f6c6964206f776e65720000000000000000000000000000000000000000000000602082015250565b60006137f2602983612bb2565b91506137fd82613796565b604082019050919050565b60006020820190508181036000830152613821816137e5565b9050919050565b7f4f6e6c79206d61726b6574706c616365206f776e65722063616e20757064617460008201527f65206c697374696e672070726963652e00000000000000000000000000000000602082015250565b6000613884603083612bb2565b915061388f82613828565b604082019050919050565b600060208201905081810360008301526138b381613877565b9050919050565b7f506c65617365207375626d6974207468652061736b696e67207072696365206960008201527f6e206f7264657220746f20636f6d706c65746520746865207075726368617365602082015250565b6000613916604083612bb2565b9150613921826138ba565b604082019050919050565b6000602082019050818103600083015261394581613909565b9050919050565b600081905092915050565b600061396282612ba7565b61396c818561394c565b935061397c818560208601612bc3565b80840191505092915050565b60006139948285613957565b91506139a08284613957565b91508190509392505050565b7f4f6e6c79206974656d206f776e65722063616e20706572666f726d207468697360008201527f206f7065726174696f6e00000000000000000000000000000000000000000000602082015250565b6000613a08602a83612bb2565b9150613a13826139ac565b604082019050919050565b60006020820190508181036000830152613a37816139fb565b9050919050565b7f5072696365206d75737420626520657175616c20746f206c697374696e67207060008201527f7269636500000000000000000000000000000000000000000000000000000000602082015250565b6000613a9a602483612bb2565b9150613aa582613a3e565b604082019050919050565b60006020820190508181036000830152613ac981613a8d565b9050919050565b7f4552433732313a207472616e736665722066726f6d20696e636f72726563742060008201527f6f776e6572000000000000000000000000000000000000000000000000000000602082015250565b6000613b2c602583612bb2565b9150613b3782613ad0565b604082019050919050565b60006020820190508181036000830152613b5b81613b1f565b9050919050565b7f4552433732313a207472616e7366657220746f20746865207a65726f2061646460008201527f7265737300000000000000000000000000000000000000000000000000000000602082015250565b6000613bbe602483612bb2565b9150613bc982613b62565b604082019050919050565b60006020820190508181036000830152613bed81613bb1565b9050919050565b7f4552433732313a206d696e7420746f20746865207a65726f2061646472657373600082015250565b6000613c2a602083612bb2565b9150613c3582613bf4565b602082019050919050565b60006020820190508181036000830152613c5981613c1d565b9050919050565b7f4552433732313a20746f6b656e20616c7265616479206d696e74656400000000600082015250565b6000613c96601c83612bb2565b9150613ca182613c60565b602082019050919050565b60006020820190508181036000830152613cc581613c89565b9050919050565b7f45524337323155524953746f726167653a2055524920736574206f66206e6f6e60008201527f6578697374656e7420746f6b656e000000000000000000000000000000000000602082015250565b6000613d28602e83612bb2565b9150613d3382613ccc565b604082019050919050565b60006020820190508181036000830152613d5781613d1b565b9050919050565b7f5072696365206d757374206265206174206c6561737420312077656900000000600082015250565b6000613d94601c83612bb2565b9150613d9f82613d5e565b602082019050919050565b60006020820190508181036000830152613dc381613d87565b9050919050565b6000608082019050613ddf6000830187612cf7565b613dec6020830186612cf7565b613df96040830185612f05565b613e066060830184612b7d565b95945050505050565b7f4552433732313a20617070726f766520746f2063616c6c657200000000000000600082015250565b6000613e45601983612bb2565b9150613e5082613e0f565b602082019050919050565b60006020820190508181036000830152613e7481613e38565b9050919050565b7f4552433732313a207472616e7366657220746f206e6f6e20455243373231526560008201527f63656976657220696d706c656d656e7465720000000000000000000000000000602082015250565b6000613ed7603283612bb2565b9150613ee282613e7b565b604082019050919050565b60006020820190508181036000830152613f0681613eca565b9050919050565b7f436f756e7465723a2064656372656d656e74206f766572666c6f770000000000600082015250565b6000613f43601b83612bb2565b9150613f4e82613f0d565b602082019050919050565b60006020820190508181036000830152613f7281613f36565b9050919050565b600081519050919050565b600082825260208201905092915050565b6000613fa082613f79565b613faa8185613f84565b9350613fba818560208601612bc3565b613fc381612bf6565b840191505092915050565b6000608082019050613fe36000830187612cf7565b613ff06020830186612cf7565b613ffd6040830185612f05565b818103606083015261400f8184613f95565b905095945050505050565b60008151905061402981612b18565b92915050565b60006020828403121561404557614044612ae2565b5b60006140538482850161401a565b91505092915050565b7f4e487b7100000000000000000000000000000000000000000000000000000000600052601260045260246000fd5b600061409682612c62565b91506140a183612c62565b9250826140b1576140b061405c565b5b828204905092915050565b60006140c782612c62565b91506140d283612c62565b9250826140e2576140e161405c565b5b82820690509291505056fea264697066735822122048104cfb0f2842fc499cce4bf7c2ece3fb9435b37e31f59318cde9a674025ff864736f6c63430008090033",
  "linkReferences": {},
  "deployedLinkReferences": {}
}